{
  "address": "0x06fc9FFEF7C5814EA79721d89edD25F7391ad778",
  "abi": [
    {
      "inputs": [],
      "name": "destination",
      "outputs": [
        {
          "internalType": "address",
          "name": "",
          "type": "address"
        }
      ],
      "stateMutability": "view",
      "type": "function"
    },
    {
      "inputs": [
        {
          "internalType": "bool",
          "name": "_isSender",
          "type": "bool"
        },
        {
          "internalType": "address",
          "name": "_destination",
          "type": "address"
        }
      ],
      "name": "initialize",
      "outputs": [],
      "stateMutability": "nonpayable",
      "type": "function"
    },
    {
      "inputs": [],
      "name": "initialized",
      "outputs": [
        {
          "internalType": "bool",
          "name": "",
          "type": "bool"
        }
      ],
      "stateMutability": "view",
      "type": "function"
    },
    {
      "inputs": [],
      "name": "isSender",
      "outputs": [
        {
          "internalType": "bool",
          "name": "",
          "type": "bool"
        }
      ],
      "stateMutability": "view",
      "type": "function"
    },
    {
      "inputs": [
        {
          "internalType": "address",
          "name": "_token",
          "type": "address"
        }
      ],
      "name": "transferAll",
      "outputs": [],
      "stateMutability": "nonpayable",
      "type": "function"
    },
    {
      "inputs": [
        {
          "internalType": "address",
          "name": "_token",
          "type": "address"
        }
      ],
      "name": "withdrawAll",
      "outputs": [],
      "stateMutability": "nonpayable",
      "type": "function"
    }
  ],
  "transactionHash": "0xd4e338aeab1a3171cae35a5be5469054b1555ff6a3f34718a61d938f1ec742e4",
  "args": [],
  "solcInputHash": "e90473170cd1cecee093939bbb602ad3",
  "bytecode": "0x608060405234801561001057600080fd5b506108ac806100206000396000f3fe608060405234801561001057600080fd5b50600436106100625760003560e01c8063158ef93e1461006757806370b158cf1461008557806385ee7ba6146100a3578063a3a7e7f3146100bf578063b269681d146100db578063fa09e630146100f9575b600080fd5b61006f610115565b60405161007c9190610742565b60405180910390f35b61008d610128565b60405161009a9190610742565b60405180910390f35b6100bd60048036038101906100b891906105ac565b610139565b005b6100d960048036038101906100d4919061055a565b610208565b005b6100e3610397565b6040516100f091906106fe565b60405180910390f35b610113600480360381019061010e919061055a565b6103bd565b005b600060159054906101000a900460ff1681565b60008054906101000a900460ff1681565b60001515600060159054906101000a900460ff1615151461018f576040517f08c379a00000000000000000000000000000000000000000000000000000000081526004016101869061079d565b60405180910390fd5b816000806101000a81548160ff02191690831515021790555080600060016101000a81548173ffffffffffffffffffffffffffffffffffffffff021916908373ffffffffffffffffffffffffffffffffffffffff1602179055506001600060156101000a81548160ff0219169083151502179055505050565b60008054906101000a900460ff1615610256576040517f08c379a000000000000000000000000000000000000000000000000000000000815260040161024d9061077d565b60405180910390fd5b60008173ffffffffffffffffffffffffffffffffffffffff166370a08231306040518263ffffffff1660e01b815260040161029191906106fe565b60206040518083038186803b1580156102a957600080fd5b505afa1580156102bd573d6000803e3d6000fd5b505050506040513d601f19601f820116820180604052508101906102e191906105e8565b90508173ffffffffffffffffffffffffffffffffffffffff1663a9059cbb600060019054906101000a900473ffffffffffffffffffffffffffffffffffffffff16836040518363ffffffff1660e01b8152600401610340929190610719565b602060405180830381600087803b15801561035a57600080fd5b505af115801561036e573d6000803e3d6000fd5b505050506040513d601f19601f820116820180604052508101906103929190610583565b505050565b600060019054906101000a900473ffffffffffffffffffffffffffffffffffffffff1681565b60008054906101000a900460ff1661040a576040517f08c379a00000000000000000000000000000000000000000000000000000000081526004016104019061075d565b60405180910390fd5b60008173ffffffffffffffffffffffffffffffffffffffff166370a08231306040518263ffffffff1660e01b815260040161044591906106fe565b60206040518083038186803b15801561045d57600080fd5b505afa158015610471573d6000803e3d6000fd5b505050506040513d601f19601f8201168201806040525081019061049591906105e8565b90508173ffffffffffffffffffffffffffffffffffffffff16632e1a7d4d826040518263ffffffff1660e01b81526004016104d091906107bd565b600060405180830381600087803b1580156104ea57600080fd5b505af11580156104fe573d6000803e3d6000fd5b505050505050565b60008135905061051581610831565b92915050565b60008135905061052a81610848565b92915050565b60008151905061053f81610848565b92915050565b6000815190506105548161085f565b92915050565b60006020828403121561056c57600080fd5b600061057a84828501610506565b91505092915050565b60006020828403121561059557600080fd5b60006105a384828501610530565b91505092915050565b600080604083850312156105bf57600080fd5b60006105cd8582860161051b565b92505060206105de85828601610506565b9150509250929050565b6000602082840312156105fa57600080fd5b600061060884828501610545565b91505092915050565b61061a816107e9565b82525050565b610629816107fb565b82525050565b600061063c600e836107d8565b91507f4d7573742062652073656e6465720000000000000000000000000000000000006000830152602082019050919050565b600061067c6010836107d8565b91507f4d757374206265207265636569766572000000000000000000000000000000006000830152602082019050919050565b60006106bc6013836107d8565b91507f416c726561647920696e697469616c697a6564000000000000000000000000006000830152602082019050919050565b6106f881610827565b82525050565b60006020820190506107136000830184610611565b92915050565b600060408201905061072e6000830185610611565b61073b60208301846106ef565b9392505050565b60006020820190506107576000830184610620565b92915050565b600060208201905081810360008301526107768161062f565b9050919050565b600060208201905081810360008301526107968161066f565b9050919050565b600060208201905081810360008301526107b6816106af565b9050919050565b60006020820190506107d260008301846106ef565b92915050565b600082825260208201905092915050565b60006107f482610807565b9050919050565b60008115159050919050565b600073ffffffffffffffffffffffffffffffffffffffff82169050919050565b6000819050919050565b61083a816107e9565b811461084557600080fd5b50565b610851816107fb565b811461085c57600080fd5b50565b61086881610827565b811461087357600080fd5b5056fea264697066735822122021b4de6ba573709021050a88e929220309f049fb459ca305a32b5d5e9c8e48b064736f6c63430008000033",
  "devdoc": {
    "kind": "dev",
    "methods": {},
    "version": 1
  },
  "userdoc": {
    "kind": "user",
    "methods": {},
    "version": 1
  },
  "storageLayout": {
    "storage": [
      {
        "astId": 1222,
        "contract": "contracts/OneWayBridge.sol:OneWayBridge",
        "label": "isSender",
        "offset": 0,
        "slot": "0",
        "type": "t_bool"
      },
      {
        "astId": 1224,
        "contract": "contracts/OneWayBridge.sol:OneWayBridge",
        "label": "destination",
        "offset": 1,
        "slot": "0",
        "type": "t_address"
      },
      {
        "astId": 1226,
        "contract": "contracts/OneWayBridge.sol:OneWayBridge",
        "label": "initialized",
        "offset": 21,
        "slot": "0",
        "type": "t_bool"
      }
    ],
    "types": {
      "t_address": {
        "encoding": "inplace",
        "label": "address",
        "numberOfBytes": "20"
      },
      "t_bool": {
        "encoding": "inplace",
        "label": "bool",
        "numberOfBytes": "1"
      }
    }
  }
}